:020000040800F2
:10000000B81600202102000853110008DD10000876
:1000100051110008B30400084F140008000000004C
:10002000000000000000000000000000890100083E
:10003000B504000800000000CD01000855110008BB
:100040003B0200083B0200083B0200083B0200089C
:100050003B0200083B0200083B0200083B0200088C
:100060003B0200083B0200083B0200083B0200087C
:100070003B0200083B0200083B0200083B0200086C
:100080003B0200083B0200083B0200083B0200085C
:100090003B0200083B0200083B0200083B0200084C
:1000A0003B020008E11100083B0200083B02000887
:1000B0003B0200083B0200083B0200083B0200082C
:1000C0003B0200083B0200083B0200083B0200081C
:1000D0003B0200083B0200083B0200083B0200080C
:1000E0003B0200083B0200083B02000800F002F857
:1000F00000F03AF80AA090E8000C82448344AAF188
:100100000107DA4501D100F02FF8AFF2090EBAE885
:100110000F0013F0010F18BFFB1A43F0010318473B
:1001200088280000A8280000103A24BF78C878C1A9
:10013000FAD8520724BF30C830C144BF04680C60ED
:10014000704700000023002400250026103A28BF35
:1001500078C1FBD8520728BF30C148BF0B60704739
:100160001FB51FBD10B510BD00F056F91146FFF7C1
:10017000F7FF01F08BF900F088F903B4FFF7F2FF05
:1001800003BC00F08FF90000224B19680868B0E842
:10019000F00F80F30988BFF36F8F4FF0000080F3FA
:1001A00011884EF00D0E70470000000006480068F0
:1001B000006880F3088862B661B6BFF34F8FBFF363
:1001C0006F8F00DF00BF00BF08ED00E0EFF3098094
:1001D000BFF36F8F0F4B1A6820E9F00F106008B55E
:1001E0004FF0500080F31188BFF34F8FBFF36F8F34
:1001F00001F0AAFE4FF0000080F31188BDE808402E
:1002000019680868B0E8F00F80F30988BFF36F8FB2
:10021000704700BF1C000020EFF30580704700000E
:100220000948804709480047FEE7FEE7FEE7FEE78A
:10023000FEE7FEE7FEE7FEE7FEE7FEE704480549C6
:10024000054A064B70470000DF110008ED0000086A
:10025000B8100020B8160020B8120020B8120020F4
:100260000FB4044910B503AA029800F0A7F810BC17
:100270005DF814FB08000020032A40F2308010F0E3
:10028000030C00F0158011F8013BBCF1020F624431
:1002900098BF11F801CB00F8013B38BF11F8013BC2
:1002A000A2F1040298BF00F801CB38BF00F8013B6F
:1002B00011F0030300F02580083AC0F0088051F8DF
:1002C000043B083A51F804CBA0E80810F5E7121DEA
:1002D0005CBF51F8043B40F8043BAFF30080D20709
:1002E00024BF11F8013B11F801CB48BF11F8012BD5
:1002F00024BF00F8013B00F801CB48BF00F8012BF8
:10030000704710B5203AC0F00B80B1E81850203A81
:10031000A0E81850B1E81850A0E81850BFF4F5AFA5
:100320005FEA027C24BFB1E81850A0E8185044BF2F
:1003300018C918C0BDE810405FEA827C24BF51F89C
:10034000043B40F8043B08BF7047D20728BF31F890
:10035000023B48BF11F8012B28BF20F8023B48BFE1
:1003600000F8012B70474FF0000200B51346944689
:100370009646203922BFA0E80C50A0E80C50B1F1FD
:100380002001BFF4F7AF090728BFA0E80C5048BF11
:100390000CC05DF804EB890028BF40F8042B08BFAF
:1003A000704748BF20F8022B11F0804F18BF00F8AB
:1003B000012B70477047704770470000074B70B5BE
:1003C0000D467B4400F011F80446284600F020F862
:1003D00010B14FF0FF3070BD204670BDAB10000073
:1003E00001694A1C02610878704700B58FB0CDE9F9
:1003F00001310021059105497944CDE903101146E9
:10040000684600F02EF80FB000BD0000E5FFFFFFCA
:10041000007B00F080007047754600F03FF8AE4664
:1004200005006946534620F00700854618B020B500
:10043000FFF704FFBDE820404FF000064FF0000733
:100440004FF000084FF0000B21F00701AC46ACE87C
:10045000C009ACE8C009ACE8C009ACE8C0098D46E9
:1004600070472DE9F04106460024D6E90170F56891
:100470008046304603E04146B847641C3046A847F2
:100480000028F8D12046BDE8F08110B50446AFF34E
:1004900000802046BDE81040FFF76FBE004870475F
:1004A0005810002001491820ABBEFEE726000200CC
:1004B0007047FEE7704700002DE9F84FDFF8B8916C
:1004C0000024A9F1040B23460F2709F1040AABF11C
:1004D000040EC9E00125A5402A40AA427DD1674EFD
:1004E000D1F804C0ACEB0608B44532D014DCBCF142
:1004F000030F3AD009DCBCF1000F2AD0BCF1010F88
:100500001CD0BCF1020F31D11DE0BCF1110F17D08E
:10051000BCF1120F2AD119E0B8F5881F19D006DCFA
:10052000B8F5803F15D0B8F5801F1FD111E0B8F5A0
:10053000001F0ED0B8F5041F18D10AE0CB6815E0F3
:10054000CB681B1D12E0CB6808330FE0CB680C337F
:100550000CE08B682BB1012B4FF0080303D04561F1
:1005600004E0042302E0056100E00023FF2A01D833
:10057000064601E000F104064FEA840501D9A5F121
:100580002005D6F8008007FA05FC28EA0C0803FAD3
:1005900005F548EA0508C6F800804D68ED0062D50B
:1005A000374DAE6946F00106AE61AD6924F0030631
:1005B00005F001050095334D06EB050CDCF80850FD
:1005C000A607360F07FA06F825EA0805DFF8B8800F
:1005D000404503D14FF0000817E044E0DFF8AC805D
:1005E000404502D14FF001080FE0DFF8A4804045FC
:1005F00002D14FF0020808E0DFF89880404502D1B0
:100600004FF0030801E04FF0040808FA06F848EA42
:100610000508CCF808804D68D9F80060ED024D4619
:1006200001D5164300E096432E604D68DAF800606D
:10063000AD02554601D5164300E096432E604D6845
:10064000DBF80060AD035D4601D5164300E096433C
:100650002E604D68DEF80060ED03754601D5164347
:1006600000E096432E60641C0D682A46E5407FF446
:1006700031AFBDE8F88F0000080401400000111000
:10068000001002400000014000080140000C014041
:100690000010014000140140C26821EA02030A4030
:1006A00043EA0241016170470AB1016170470904E0
:1006B000FBE7000001488068704700000C00002044
:1006C0000248816802781144816070470C00002064
:1006D000074810B5016841F010010160032000F0E7
:1006E000A1F80F2000F006F800F04AF8002010BD35
:1006F0000020024030B505461C4887B0816941F4AE
:1007000000618161806906A900F40060009001A881
:1007100000F030F900F05EF91549164AB0FBF1F12E
:100720001548491E0260416040F2E7320021C0E9ED
:1007300003218160816100F015FB040012D10E4895
:1007400000F03EFB04000DD1192000F03DF8102D03
:1007500007D200222946192000F044F80748056016
:1007600000E0012407B0204630BD00000010024028
:1007700040420F00002C0140200300201000002008
:100780000F4808B5816941F001018161816901F07B
:1007900001010091C16941F08051C161C06900222D
:1007A00000F0805000900F21901E00F01BF80548CB
:1007B000416821F0E06141F00071416008BD000036
:1007C0000010024000000140002809DB00F01F0279
:1007D000012191404009800000F1E020C0F80011A3
:1007E00070470000F0B40E4B1B680C46C3F30223A5
:1007F000C3F10705042D00D90425191D072901D2CD
:10080000002300E0DB1E012606FA05F1491E214007
:1008100099409E40761E16403143F0BC00F018BE51
:100820000CED00E0064900F0070208684FF6FF03F0
:10083000184040EA0220034A104308607047000055
:100840000CED00E00000FA052DE9F0470F46050029
:1008500061D0434E306800F00700B84209D23068DA
:1008600020F0070038433060306800F00700B842DD
:1008700051D128683B4C810712D5400703D56068E9
:1008800040F4E06060602878000703D5606840F4B9
:10089000605060606068A96820F0F0000843606004
:1008A0002878C00728D06868012810D0216802285D
:1008B00010D0890700292EDA616821F00301014375
:1008C0006160FFF7F7FE804641F288390DE021684C
:1008D0008903EFE78901EDE7FFF7ECFEA0EB0801E4
:1008E000494502D90320BDE8F0876068696800F0D7
:1008F0000C00B0EB810FEFD1306800F00700B84278
:100900000BD9306820F0070038433060306800F0C1
:100910000700B84201D00120E5E72878400705D557
:100920006068E96820F4E0600843606028780007A8
:1009300006D56068296920F4605040EAC100606013
:1009400000F058F86168084AC1F30311515CC840CF
:100950000649086006480068FFF7CCFE0020C2E7A1
:1009600000200240001002408629000818000020E4
:10097000100000200F2202600C4A536803F00303AA
:100980004360536803F0F0038360536803F4E0634B
:10099000C36052684FF4E06303EAD2020261044884
:1009A000006800F007000860704700000010024077
:1009B000002002400448054900684968044AC1F320
:1009C0000221515CC840704718000020001002400E
:1009D000962900080448054900684968044AC1F39B
:1009E000C221515CC840704718000020001002402E
:1009F000962900080E4A51680E4801F00C03042B9A
:100A000011D0082B0FD10C48C1F38343C903C05C3C
:100A10000AD55168084AC1F34041921E515C054A0B
:100A20005043B0FBF1F07047044948437047000061
:100A30000010024000127A007629000800093D00EB
:100A40002DE9F84F040070D02078C04DC00749D080
:100A50006868C0F38100012807D06868C0F381008E
:100A6000022809D16868C00306D52868800339D5F3
:100A700060680028E7D035E06068B0F5803F0BD0B3
:100A800010B1B0F5A02F11D0286820F48030286074
:100A9000286820F4802002E0286840F48030286034
:100AA000606890B1FFF706FE06460AE0286840F449
:100AB00080202860F0E700BFFFF7FCFD801B642862
:100AC00073D828688003F7D50CE0FFF7F3FD0646DE
:100AD00005E000BFFFF7EEFD801B6428F0D8286812
:100AE0008003F7D420789A4E80074FF001094FF029
:100AF000000839D5686810F00C0F07D06868C0F39B
:100B00008100022809D16868C00306D428688007DC
:100B100014D52069012808D110E02069B0B1C6F8C9
:100B20000090FFF7C7FD074605E00AE1FFF7C2FDA9
:100B3000C01B0228C4D828688007F7D528686169D7
:100B400020F0F80040EAC10028600DE0C6F80080FF
:100B5000FFF7B0FD074604E0FFF7ACFDC01B02281D
:100B600023D828688007F7D4207800072CD5794847
:100B7000A169D9B1C0F80090FFF79CFD074604E0D9
:100B8000FFF798FDC01B02280FD8686A8007F7D5C9
:100B900071484FF4FA510068B0FBF1F0009000BFCB
:100BA0000098411E0091FAD20EE080E0C0F800806B
:100BB000FFF780FD074604E0FFF77CFDC01B02281D
:100BC00075D8686A8007F7D42078400760D5E8694F
:100BD0000027C00008D4E86940F08050E861E86967
:100BE000012700F0805000905C480168C90513D4CB
:100BF0000168834641F480710160FFF75BFD824626
:100C000006E000BFFFF756FDA0EB0A0064284ED8AF
:100C1000DBF80000C005F5D5E06801280AD008B16E
:100C2000052813D0286A20F001002862286A20F0E5
:100C3000040002E0286A40F001002862E06841F206
:100C4000883B98B1FFF736FD82460BE0286A40F0FA
:100C500004002862EEE700BFFFF72CFDA0EB0A01BD
:100C600059455AD8286A8007F6D50CE0FFF722FDCF
:100C7000824605E0FFF71EFDA0EB0A0159454CD85E
:100C8000286A8007F6D41FB1E86920F08050E86137
:100C9000E06988B36968C1F38101022944D0022860
:100CA000C6F8608004D0FFF705FD044638E034E064
:100CB000FFF700FD074604E0FFF7FCFCC01B02281D
:100CC0002BD828688001F7D4206AB0F5803F05D181
:100CD0006868A16820F4003008436860D4E908011E
:100CE0000843696821F4741108436860C6F860908D
:100CF000FFF7E0FC044606E025E000BFFFF7DAFC62
:100D0000001B022809D828688001F7D51BE000BF26
:100D1000FFF7D0FC001B022802D90320BDE8F88FA2
:100D200028688001F4D40EE00128F7D06868226AB0
:100D300000F48031914204D1616A00F4701088425D
:100D400001D00120EAE70020E8E70000001002409F
:100D5000000042428004424218000020007000401F
:100D60007047704710B5040003D094F83D0010B1EF
:100D700007E0012010BD002084F83C00204600F070
:100D80001EF8022084F83D00211D206800F02EFA94
:100D9000012084F8460084F83E0084F83F0084F87F
:100DA000400084F8410084F8420084F8430084F84D
:100DB000440084F8450084F83D00002010BD7047D1
:100DC00090F83D10012901D001207047022180F8E0
:100DD0003D100168CA6842F00102CA6000680B4910
:100DE000884208D0B0F1804F05D00949884202D02E
:100DF0000849884204D1816801F00701062903D01F
:100E0000016841F00101016000207047002C0140A1
:100E1000000400400008004070472DE9F0410446FE
:100E20000068C66805694FF00007A90713D5B10728
:100E300011D5F91E016101202077206880698007A3
:100E4000204602D0FFF7E8FF04E000F07EF82046DD
:100E500000F07CF82777680716D5700714D521684D
:100E60006FF004000861022020772068806910F488
:100E7000407F204602D0FFF7CFFF04E000F065F886
:100E8000204600F063F82777280715D5300713D5DB
:100E900021686FF008000861042020772068C0698D
:100EA0008007204602D0FFF7B7FF04E000F04DF8BE
:100EB000204600F04BF82777E80616D5F00614D543
:100EC00021686FF010000861082020772068C06951
:100ED00010F4407F204602D0FFF79EFF04E000F0B0
:100EE00034F8204600F032F82777E80708D0F007FA
:100EF00006D021686FF001000861204600F028F854
:100F0000280608D5300606D521686FF080000861F4
:100F10002046FFF725FF680608D5700606D521682C
:100F20006FF040000861204600F01CF8A8060AD5C2
:100F3000B00608D521686FF0200008612046BDE8A2
:100F4000F041FFF70EBFBDE8F08170477047000029
:100F500000680349884201D1FFF7B2BB7047000027
:100F6000002C0140704770B5040004D094F8410093
:100F7000002510B106E0012070BD84F840502046E5
:100F800000F024F8242084F841002068C16821F48E
:100F90000051C160204600F0C5F92068016921F4C4
:100FA000904101612068416921F02A014161206876
:100FB000C16841F40051C1606564202084F841009B
:100FC00084F842006563002070BD000030B585B034
:100FD0000024009401940294039400681449884208
:100FE00024D11448816941F480418161816901F40F
:100FF00080410491816941F00401816180690E4D55
:1010000000F0040004904FF4007000900220019062
:101010000320039069462846FFF74EFA2815CDE9CC
:101020000004694628460294FFF746FA05B030BD31
:101030000038014000100240000801402DE9F8434B
:10104000044690F84100984616460D46202802D0E6
:101050000220BDE8F88385B17EB1002060642120C4
:1010600084F84100FFF726FBA6848146E684A06849
:101070002027B0F5805F02D003E00120E9E7206976
:1010800010B12E4600250EE000260CE080212046FF
:1010900000F0A4F9A8B9C6B116F8010B21684860A0
:1010A000E08C401EE084E08C4B464FF00002CDF80F
:1010B00000800028EAD14FF04001204600F08EF970
:1010C00040B184F841700320C3E735F8020BC0F348
:1010D0000800E3E784F841700020BAE7FEE700006B
:1010E00070B586B0002517480095019502950395C7
:1010F000816941F020018161816901F02001049141
:10110000816941F00401816180690F4E00F00400A3
:101110000490012202213046FFF7C6FA01240B4851
:101120006946CDE9004030460294FFF7C5F9022137
:101130008DE83200039169463046FFF7BDF906B0ED
:1011400070BD0000001002400008014000002110A6
:10115000FEE7FEE710B5502080F31188BFF34F8FF4
:10116000BFF36F8F01F064FA18B104494FF080505B
:101170000860002080F3118810BD000004ED00E03D
:1011800030B58FB028216846FFF7EDF814210AA882
:10119000FFF7E9F801210804CDE9001000240294CA
:1011A00002250491CDE907504FF4E01009906846FC
:1011B000FFF746FC08B172B6FEE70F20CDE90A053D
:1011C0004FF48060CDE90C4002210AA80E94FFF78D
:1011D0003BFB002801D072B6FEE70FB030BD704770
:1011E0000148FFF71ABE000020030020F0B5026896
:1011F000194B1A4C1A4D4FF08047984205D0B8420F
:1012000003D0A04201D0A84203D122F070064A6860
:101210003243984205D0B84203D0A04201D0A84240
:1012200003D122F44074CA6822434C6922F0800240
:10123000224302608A68C2620A688262984201D1CF
:1012400009690163012141610169C90703D001698D
:1012500021F001010161F0BD002C014000040040BB
:10126000000800400A4C0B4E4FF0FF354FF47A77E0
:101270002946606800F074F907A0FEF7F1FF02212B
:101280003046FFF709FA384600F03EF9F0E7000073
:101290000000002000080140427574746F6E2070D9
:1012A0007265737365642120546F67676C696E673C
:1012B000204C45442E2E2E0D0A00000001B54FF0A3
:1012C000FF33012269460248FFF7B8FE08BD00005F
:1012D0008400002001680C3151E8002F22F4907244
:1012E00041E80023002BF5D10168143151E8002FAB
:1012F00022F0010241E80023002BF5D1016B012906
:1013000009D101680C3151E8002F22F0100241E8A8
:101310000023002BF5D1202180F842100021016329
:101320007047000070B5044600680169E26821F466
:101330004051114301612169A06808436169084374
:101340002168CA6841F20C639A430243CA6020686C
:101350004169A26921F44071114341611E4920682D
:10136000884202D1FFF736FB01E0FFF723FB00EBD9
:10137000C00101EB0012606864218000B2FBF0F351
:10138000B3FBF1F36FF018067343B2FBF0F5B2FB59
:10139000F0F605EB8305322303EB0515B5FBF1F5FC
:1013A000B6FBF1F605F0F00505EB0615B2FBF0F61D
:1013B000B2FBF0F0B0FBF1F06FF01802504306EB17
:1013C000800003EB0010B0FBF1F0216800F00F008B
:1013D0002844886070BD0000003801402DE9F843C2
:1013E000984617460D460446089E24E0701C22D0FD
:1013F000FFF760F9A0EB0800B0421AD8CEB1206820
:10140000C168490717D5802D15D0402D13D001682C
:10141000C94309070FD401680025406800902046A1
:10142000FFF758FF0820606484F840500120BDE8B1
:10143000F8830320FBE72068006835EA000004D049
:101440000020B842D2D00020F1E70120F9E7FEE702
:101450000907090E002804DB00F1E02080F80014E1
:10146000704700F00F0000F1E02080F8141D704775
:1014700010B50446C0B2FFF721FF204610BDEFF3C0
:101480000580002800D00120704700008AB0FFF7D7
:101490001FF9FFF775FEFFF723FE154813490024D7
:1014A00001604FF41651C0E901140C21C460C0E979
:1014B00004418461C461FFF756FD08B172B6FEE7CE
:1014C0000794012107A8089400F02AF8094C1C226F
:1014D000094960606846FEF714FF0021684600F085
:1014E00071F8206000F017F8FEE7000000380140B6
:1014F0008400002000000020582900080146002038
:10150000842900D0C81C704710B500B9012000F034
:1015100041FC002010BD10B500F0D8FC002010BD2B
:1015200038B543684BB1012909D10320002200904E
:101530001146012000F0ABFD38BD012901D000208B
:1015400038BD03220021012000F080FD040004D0FA
:1015500000231A46194600F011FE204638BD00004F
:1015600038B505004FF0000000900FD00024481C53
:101570000ED001B10C46FFF782FFB8B16A460021D8
:10158000284600F0ABFE012816D104E0802038BDCB
:101590004FF0FF34EFE7009880B109494FF08050D9
:1015A0000860BFF34F8FBFF36F8F07E021462846D7
:1015B00000F0E2FE012801D0FF2038BD002038BD38
:1015C00004ED00E07FB50D4604464169B0F908001E
:1015D00081B1A16971B1FFF791FFD4E905128DE8DE
:1015E0000700D4E900102B46226900F0E8FF0390C1
:1015F00004B070BDFFF782FF03A9CDE90001208A86
:101600002B4682B2D4E9001000F0ACFF012801D0D3
:101610000020EDE70398EBE72DE9F041184C0F4669
:101620000546E6682068001D00F0C2FA38B9206857
:1016300090F82C1001208840216981432161681CA9
:1016400007D137B12168BDE8F0410E48091D00F00F
:10165000F3BA20683544B5424560216805D2A06BD5
:10166000BDE8F041091D00F0CFBA606B091D00F024
:10167000CBFAA06A854200D2A562BDE8F0810000E5
:101680001C000020440400202DE9F041054600F034
:10169000DFFA2E4CA068401CA06020682C4F10B1CF
:1016A000606940B32DE02560A068012829D100269B
:1016B00006EB860007EB800000F098FA761C072EF8
:1016C000F6D323488C3000F091FA2148A03000F086
:1016D0008DFA1F48B43000F089FA1D48C83000F078
:1016E00085FA1B48DC3000F081FA19488C306063C1
:1016F0001430A06305E02068E96AC06A884200D817
:101700002560606A401C6062E96A012022698840A5
:101710001043206101EB810007EB8000291D00F0E0
:101720008BFA00F0B5FA606900280CD02068E96AED
:10173000C06A884207D207494FF080500860BFF363
:101740004F8FBFF36F8FBDE8F08100001C000020B9
:101750006803002004ED00E030B4026C0B46002A60
:101760000BD0C1681144C1608468A14201D30168F3
:10177000C16030BC1846FEF77FBD30BC70472DE914
:10178000F041856B174604460026026C82B1C7B152
:10179000E068FEF771FDE168206C091AE1602268DB
:1017A000914202D2A168081AE060022F16D017E019
:1017B0002068A8B9A06800F0A1FF06460020A0603C
:1017C0000EE06068FEF758FD216C606808446060B8
:1017D000A168884204D32068606001E005B16D1EF5
:1017E0006D1CA5633046BDE8F08110B5044690F845
:1017F000510058B101280CD002280FD0502080F39E
:101800001188BFF34F8FBFF36F8FFEE7206B00F09F
:1018100053FA2046BDE8104000F04EBA10BD00005B
:1018200010484FF44061420706D0C01D0D4920F01A
:101830000700411AC1F540610B4A00230144C2E987
:1018400000030839183A21F0070111604B600B6062
:101850000B1AC0E9001393604FF0004053605061D1
:10186000704700005804002070000020144E154CF2
:10187000A6F1C8074FF08058DFF84C9012E000BF87
:1018800000F0E6F9F068C568281D00F091F9A0683D
:10189000401EA0606068401E606000F0F9F92846B4
:1018A000FFF7A3FF60680028EAD138680128F9D95A
:1018B000C9F80080BFF34F8FBFF36F8FF2E70000CE
:1018C000300400201C00002004ED00E003460098D6
:1018D00029B10260C0E90F31012100F00BBC0060AA
:1018E000F8E72DE9F0479A46DDE9098481466FF073
:1018F0000303206B03EB82021044089E20F00707CD
:10190000780707D0502080F31188BFF34F8FBFF3C3
:101910006F8FFEE7002561B1002023180A5C83F871
:1019200034200A5C12B1401C1028F6D384F84350CE
:1019300001E084F83450072E00D30626E662C4E99D
:101940001165201D00F05DF904F1180000F059F94F
:101950002461C6F107006462A061E56484F8505018
:1019600052464946384600F011F92060B8F1000FA0
:1019700001D0C8F80040BDE8F087000030B511493B
:1019800000E011460A688242FBD34B685C1884422F
:1019900003D1406818444860084643681C189442C4
:1019A00009D1084C183C2468A24209D052681A4454
:1019B00042600A6812680260814200D0086030BD4F
:1019C0000460F9E77000002010B5044600F040F90B
:1019D000A06B28B15FF0000400F05AF9204610BD5A
:1019E0000124F9E70648416B096829B1416BC968D0
:1019F000C9684968816270474FF0FF31FAE700001B
:101A00001C00002008484068401C4FF0500080F344
:101A1000118804D0BFF34F8FBFF36F8FFEE7BFF382
:101A20004F8FBFF36F8FFEE7780000202DE9F04164
:101A3000044600F00DF994F9455004F1240609E03C
:101A4000606A48B1304600F0EBFE08B100F0D0F912
:101A50006D1E6DB2002DF3DC4FF0FF3684F845604B
:101A600000F016F900F0F4F894F9445004F110076E
:101A700009E0206948B1384600F0D2FE08B100F014
:101A8000B7F96D1E6DB2002DF3DC84F84460BDE83B
:101A9000F04100F0FDB800002DE9F04105460027B7
:101AA00000F04AFA324E306808B9FFF7B9FE7069A3
:101AB00005424ED1C5B3083568070ED005F00700C2
:101AC000C0F108000544680707D0502080F3118852
:101AD000BFF34F8FBFF36F8FFEE72DB37068854262
:101AE00037D82348183001460C6801E020460C46E0
:101AF0006168A94202D221680029F7D131688C427D
:101B000027D007682168016060680837411B1029E9
:101B10000FD96019420708D0502080F31188BFF315
:101B20004F8FBFF36F8FFEE713E041606560FFF7F3
:101B300025FF61687068401A7060B268904200D2F8
:101B4000B060706901430020C4E90001F068401CE6
:101B5000F06000F09FFE780707D0502080F31188D6
:101B6000BFF34F8FBFF36F8FFEE73846BDE8F081BC
:101B7000580000200449086818B10868826C521C9B
:101B800082640868704700001C00002010B5031F25
:101B90004FF080741C601B1F21F001011960191F98
:101BA000024B0B60143940380A6010BD051A00085A
:101BB000D0E9013201699A60D0E901235A604A688C
:101BC000824201D182684A60002202610868401E98
:101BD0000860086870470000034B036003F154007D
:101BE0000860802010607047CC00002000F10801E0
:101BF0004FF0FF32C0E90112C160016100210160B4
:101C0000704700210161704730B50B685A1C02D043
:101C100000F1080202E0026904E0224654682568E7
:101C20009D42FAD953684B6099608A60516008619F
:101C30000168491C016030BD42684A6093688B604E
:101C400093685960916008610168491C01607047A0
:101C5000502080F31188BFF34F8FBFF36F8F0A4975
:101C60004868401C486001280CD10848006810F002
:101C7000FF0F07D0502080F31188BFF34F8FBFF3C1
:101C80006F8FFEE7704700007800002004ED00E051
:101C90000849486828B1401E486001D180F3118886
:101CA0007047502080F31188BFF34F8FBFF36F8FC1
:101CB000FEE700007800002070B500282AD0164DFD
:101CC000A0F1080460686969084207D1502080F3D8
:101CD0001188BFF34F8FBFF36F8FFEE722683AB1D1
:101CE000502080F31188BFF34F8FBFF36F8FFEE753
:101CF0008843606000F020F96068696808446860A3
:101D00002046FFF73BFE2869401C2861BDE8704073
:101D100000F0C0BD70BD0000580000204FF0E02072
:101D200000210161816105494FF47A720968B1FBB4
:101D3000F2F1491E4161072101617047180000203E
:101D400010B5FEF769FA114910280ED300F1E02012
:101D500090F8F0030A78904207D2502080F311885F
:101D6000BFF34F8FBFF36F8FFEE7094800688968A4
:101D700000F4E060884207D9502080F31188BFF357
:101D80004F8FBFF36F8FFEE710BD0000780000207B
:101D90000CED00E010B5020014D00F48006B38B114
:101DA000502080F31188BFF34F8FBFF36F8FFEE792
:101DB00000F0C2F800211046FFF72EFC00F06AFD8B
:101DC000002807D105494FF080500860BFF34F8FBE
:101DD000BFF36F8F10BD00001C00002004ED00E079
:101DE00002490A6A0260C968416070471C0000200D
:101DF00001490120C86170471C00002010B50C4645
:101E000050B1094909681831FFF7FEFE2046BDE8C8
:101E100010400121FFF700BC502080F31188BFF370
:101E20004F8FBFF36F8FFEE71C00002070B50400DA
:101E300047D0A26CA2B1606C884200D30146E06A30
:101E400088423ED0012A3CD11E4D2A6894420FD1CF
:101E5000502080F31188BFF34F8FBFF36F8FFEE7E1
:101E6000502080F31188BFF34F8FBFF36F8FFEE7D1
:101E7000E162A269002A02DBC1F10701A161124EF1
:101E800000EB8000616906EB8000814219D1201DC2
:101E9000FFF78EFE012130B994F82C002A6901FA6F
:101EA00000F082432A61E06A2A6981401143296176
:101EB00000EB800006EB8000211DBDE87040FFF7BD
:101EC000BBBE70BD1C0000206803002010B586B0AA
:101ED0000024039405AA04A903A80494FFF77CFE38
:101EE000DDE903010094CDE9011000230EA11048A3
:101EF000059A00F064FB0F490028C86211D05020F9
:101F000080F31188BFF34F8FBFF36F8F4FF0FF3017
:101F1000886201204861CC6006B0BDE8104000F046
:101F200041B806B010BD000049444C450000000017
:101F30006D1800081C0000200248016B491C016359
:101F4000704700001C0000201448016B11B10121F2
:101F5000C16170470021C1610169B1FA81F1C1F12C
:101F60001F0101EB81020E4951F822306BB101EBE8
:101F7000820101F108034A6852684A609A4201D11D
:101F800052684A60D16801607047502080F3118820
:101F9000BFF34F8FBFF36F8FFEE700001C000020E0
:101FA000680300201CB5264908780190FF200870BE
:101FB00008788DF800009DF800009DF8002000F0E2
:101FC000F000904207D0502080F31188BFF34F8F6C
:101FD000BFF36F8FFEE79DF800001A4C00F0500031
:101FE00020700720A06005E09DF8002052008DF8C9
:101FF0000020401E9DF800201206F5D4A0600328A2
:1020000007D0502080F31188BFF34F8FBFF36F8F3D
:10201000FEE74FF44070A060019808700A4801681C
:1020200041F470010160016841F070410160FFF707
:1020300075FE00206060FEF7B9F800201CBD0000AE
:1020400000E400E07800002020ED00E0F8B517463D
:102050000E46050013D005FB06F04830FFF71CFDC7
:1020600004000AD0002084F8460004F148023B46F0
:10207000314628460094FFF729FC2046F8BD502041
:1020800080F31188BFF34F8FBFF36F8FFEE738B532
:10209000049D18B153B1CAB181B120E0502080F342
:1020A0001188BFF34F8FBFF36F8FFEE7502080F38F
:1020B0001188BFF34F8FBFF36F8FFEE7502080F37F
:1020C0001188BFF34F8FBFF36F8FFEE739B15020F8
:1020D00080F31188BFF34F8FBFF36F8FFEE7482463
:1020E0001C46012384F846302B460094FFF7EEFB94
:1020F000204638BD70B50D46040025D0FFF7A8FD79
:10210000D4E90F20216802FB0011A1600021A16326
:10211000216861600A46D4E90F01401E00FB0121DD
:10212000E16021464FF0FF3001F8440F487004F1A0
:1021300010008DB1FFF75AFD04F12400FFF756FDA2
:10214000FFF7A6FD012070BD502080F31188BFF37A
:102150004F8FBFF36F8FFEE721690029F0D000F0A9
:102160005FFB0028ECD004494FF080500860BFF3BB
:102170004F8FBFF36F8FE3E704ED00E02DE9FF47DA
:1021800082B01D468A464FF00008040003D0BAF121
:10219000000F08D011E0502080F31188BFF34F8F5B
:1021A000BFF36F8FFEE7206C38B1502080F31188A9
:1021B000BFF34F8FBFF36F8FFEE7022D0AD1E06BA5
:1021C000012807D0502080F31188BFF34F8FBFF351
:1021D0006F8FFEE700F01EFA3F4F4FF000094FF0FF
:1021E000805648B9049838B1502080F31188BFF365
:1021F0004F8FBFF36F8FFEE7FFF72AFDA06BE16BF8
:10220000884207D3022D05D00498D0B1B8F1000F51
:102210001AD01EE02A4651462046FFF7B0FA616AFE
:1022200019B104F1240000F0FBFA20B13E60BFF3C5
:102230004F8FBFF36F8FFFF72BFD012006B0BDE876
:10224000F087FFF725FD22E06846FFF7C9FD4FF054
:102250000108FFF71DFDFFF76FFEFFF7F9FC94F98A
:102260004400401C01D184F8449094F94500401C7E
:1022700001D184F84590FFF70BFD04A9684600F0F2
:1022800037F930B12046FFF7D1FB00F003FB002007
:10229000D4E7FFF7DDFCA06BE16B884213D1FFF7B9
:1022A000F7FC04F110000499FFF7A8FD2046FFF7A2
:1022B000BDFB00F0EFFA00289ED13E60BFF34F8FC8
:1022C000BFF36F8F98E7FFF7E3FC2046FFF7AEFB05
:1022D00000F0E0FA90E7000004ED00E02DE9F0479F
:1022E00090468946040003D0B9F1000F08D011E0F0
:1022F000502080F31188BFF34F8FBFF36F8FFEE73D
:10230000206C38B1502080F31188BFF34F8FBFF39A
:102310006F8FFEE7FFF714FD5020EFF3118680F377
:102320001188BFF34F8FBFF36F8FA76BF7B194F98D
:10233000445049462046FFF70FFA7F1EA763681CEA
:1023400004D06D1C84F84450012010E0206900285E
:10235000FAD004F1100000F063FA0028F4D0B8F1CC
:10236000000FF1D00121C8F80010EDE7002086F33E
:102370001188BDE8F08700002DE9F343002683B003
:102380000400354609D0206C78B1502080F31188C4
:10239000BFF34F8FBFF36F8FFEE7502080F311889C
:1023A000BFF34F8FBFF36F8FFEE700F033F9DFF815
:1023B0003C814FF000094FF0805748B9049838B17C
:1023C000502080F31188BFF34F8FBFF36F8FFEE76C
:1023D000FFF73EFCA06BC8B1401EA063206810B997
:1023E000FFF7C8FBA060206950B104F1100000F0B5
:1023F00017FA28B1C8F80070BFF34F8FBFF36F8F83
:10240000FFF746FC012005B0BDE8F083049808B151
:1024100066B10FE03DB1502080F31188BFF34F8FBC
:10242000BFF36F8FFEE7FFF733FC5DE06846FFF711
:10243000D7FC0126FFF72CFCFFF77EFDFFF708FC19
:1024400094F94400401C01D184F8449094F945006B
:10245000401C01D184F84590FFF71AFC04A9684696
:1024600000F046F80028204612D0FFF7DFFA00F00F
:1024700011FA2046FFF7A8FA0028A9D09DB3FFF76C
:10248000E7FB606A50B3206B0068C0F1070126E0EB
:10249000FFF79AFAE0B1206838B9FFF7D9FBA068D6
:1024A00000F078F90546FFF7F3FB04F124000499E6
:1024B000FFF7A4FC2046FFF7B9FA00F0EBF900287B
:1024C00086D1C8F80070BFF34F8FBFF36F8F7FE7DF
:1024D0002046FFF7ABFA00F0DDF979E70021A068AC
:1024E000FFF7A4FC9FE7FFE700208CE704ED00E086
:1024F0002DE9F0410C46050011D0C4B1FFF7A8FB4F
:10250000174BDA686E682068911B471C17D02F683C
:102510001B6A9F4219D0964217D8012410E0502020
:1025200080F31188BFF34F8FBFF36F8FFEE750200A
:1025300080F31188BFF34F8FBFF36F8FFEE7002446
:10254000FFF7A6FB2046BDE8F081884205D9401A76
:1025500020602846FFF744FCF1E700202060DCE71C
:102560001C0000202DE9FF5F8346DDE90E879946B8
:1025700016468A469000FFF78FFA05001CD05420BB
:10258000FFF78AFA040014D00020256384F8510074
:10259000CDE90240CDE900874B46324651465846C8
:1025A000FFF79FF92046FFF76FF8012004B0BDE860
:1025B000F09F2846FFF780FB4FF0FF30F6E7F0B5BD
:1025C00085B0DDE90B640A9DA6B1DCB15427009704
:1025D0002663022684F85160002604AFCDE9024646
:1025E000CDE90057FFF77DF92046FFF74DF8049835
:1025F00005B0F0BD502080F31188BFF34F8FBFF3BB
:102600006F8FFEE7502080F31188BFF34F8FBFF329
:102610006F8FFEE70548416919B1006B18B10020C2
:102620007047012070470220704700001C00002006
:102630002DE9F0412F4C0026206B28B1A069401CE9
:10264000A0613046BDE8F081E5686D1CE56013D1FE
:10265000606B006838B1502080F31188BFF34F8F52
:10266000BFF36F8FFEE7606BA16B6163A063206AAD
:10267000401C2062FFF7B6F9A06ADFF87C80854233
:1026800009D3606B0068A0B1606BC068C7687868E8
:10269000854211D2A0622068C06A00EB800158F820
:1026A0002100012800D90126E0690028C9D00126AF
:1026B000C7E74FF0FF30EDE7381DFFF779FAB86A4A
:1026C00018B107F11800FFF773FAF96A01202269BF
:1026D00088401043206101EB810108EB8100391D26
:1026E000FFF7AAFAF86A2168C96A8842C9D30126A5
:1026F000C7E700001C0000206803002070B504003C
:102700004FF0000140D0214D2868844207D050206E
:1027100080F31188BFF34F8FBFF36F8FFEE7A06C7C
:1027200038B1401EA064636CE26A9A422CD040B17A
:102730002AE0502080F31188BFF34F8FBFF36F8FD3
:10274000FEE7201DFFF734FA114A012150B9E06A73
:1027500000EB800352F8233023B92B6901FA00F013
:1027600083432B61606CE062C0F10700A061E06A06
:102770002B6981401943296100EB800002EB800046
:10278000211DFFF759FA0121084670BD1C000020E9
:102790006803002070B504004FF0000034D01E4DD7
:1027A000E16A2A68D26A91422FD2A069002804DB2C
:1027B0002868C06AC0F10700A061184E01EB8101D2
:1027C000606906EB810188421AD1201DFFF7F0F9FC
:1027D000012130B994F82C002A6901FA00F08243F3
:1027E0002A612868C06AE0622A6981401143296130
:1027F00000EB800006EB8000211DFFF71DFA02E0D0
:102800002868C06AE062012070BD616C2A68D26AE3
:102810009142F8D370BD00001C0000206803002026
:102820002DE9F041C068C468ACB104F11800074656
:10283000FFF7BEF9154D286B0126A0B139461448A3
:10284000FFF7FAF9E06A2968C96A88421CD90120B1
:10285000EE61BDE8F081502080F31188BFF34F8F07
:10286000BFF36F8FFEE7201DFFF7A2F9E16A2A6927
:1028700006FA01F01043286101EB81000449B439E4
:1028800001EB8000211DDBE70020E2E71C000020B7
:102890001C0400202DE9F0472C4D00242746286B0E
:1028A00038B1FFF7D5F9286B401E2863286B40B17B
:1028B00046E0502080F31188BFF34F8FBFF36F8F36
:1028C000FEE7A968224E0120D1B3A6F1B4098046E3
:1028D0003068E8B1F068C46804F11800FFF768F9DF
:1028E000201DFFF765F9E06A2A6908FA00F1114333
:1028F000296100EB800109EB8100211DFFF79CF9A4
:10290000E06A2968C96A8842E2D3C5F81C80DFE71B
:102910000CB1FFF767F8AC6944B14646FFF788FE93
:1029200000B1EE61641EF9D10020A861E86938B1F8
:102930000849012738070860BFF34F8FBFF36F8F37
:10294000FFF7A6F93846BDE8F08700001C0000201C
:102950001C04002004ED00E0A02900086512000816
:1029600000000000000000008000000000000000E7
:1029700000000000010202030405060708090A0B13
:102980000C0D0E0F101000000000000000000102EE
:102990000304060708090000000001020304000008
:1029A0005461736B30310000C8290008000000201A
:1029B00084000000280100084C2A00088400002040
:1029C0003416000044010008000000000000000070
:1029D00000000000010000001000000000000000E6
:1029E00000127A000000000000000000000000005B
:1029F00000000000000000000000000000000000D7
:102A000000000000000000000000000000000000C6
:102A100000000000000000000000000000000000B6
:102A200000000000000000000000000000000000A6
:102A30000000000000000000000000000000000096
:0C2A400000000000AAAAAAAA00000000E2
:04000005080000ED02
:00000001FF
