:020000040800F2
:10000000F0160020290200084F19000809190008FD
:100010004D190008F9060008B71C00080000000090
:100020000000000000000000000000009101000836
:10003000FB06000800000000D5010008691900084F
:10004000430200084302000843020008430200087C
:10005000430200084302000843020008430200086C
:10006000430200084302000843020008430200085C
:10007000430200084302000843020008430200084C
:10008000430200084302000843020008430200083C
:10009000430200084302000843020008430200082C
:1000A00043020008111A0008430200084302000836
:1000B000430200084302000843020008430200080C
:1000C00043020008430200084302000843020008FC
:1000D00043020008430200084302000843020008EC
:1000E00043020008430200084302000800F002F83F
:1000F00000F03FF80AA090E8000C82448344AAF183
:100100000107DA4501D100F034F8AFF2090EBAE880
:100110000F0013F0010F18BFFB1A43F0010318473B
:100120002831000048310000103A24BF78C878C157
:10013000FAD8520724BF30C830C144BF04680C60ED
:10014000704700000023002400250026103A28BF35
:1001500078C1FBD8520728BF30C148BF0B60704739
:10016000752900F0C180002070471FB51FBD10B574
:1001700010BD00F01DFA1146FFF7F7FF01F0BAFDC0
:1001800000F03BFA03B4FFF7F2FF03BC00F042FAC1
:10019000224B19680868B0E8F00F80F30988BFF3B4
:1001A0006F8F4FF0000080F311884EF00D0E7047F6
:1001B0000000000006480068006880F3088862B606
:1001C00061B6BFF34F8FBFF36F8F00DF00BF00BF7B
:1001D00008ED00E0EFF30980BFF36F8F0F4B1A6853
:1001E00020E9F00F106008B54FF0500080F311883F
:1001F000BFF34F8FBFF36F8F02F0DAFA4FF00000BA
:1002000080F31188BDE8084019680868B0E8F00F6D
:1002100080F30988BFF36F8F704700BF2000002074
:10022000EFF3058070470000094880470948004700
:10023000FEE7FEE7FEE7FEE7FEE7FEE7FEE7FEE796
:10024000FEE7FEE704480549054A064B70470000F3
:100250000D1A0008ED000008F0100020F016002034
:10026000F0120020F01200200FB4044910B503AAC8
:10027000029800F06FF910BC5DF814FB0C00002030
:100280002DE9F0410E460446002020622046E16838
:10029000884730B3252805D0D4E901219047206A4A
:1002A000401CF2E7E168204600278847050018D087
:1002B000A5F14100192802D820354FF400673246D5
:1002C000294620462760FFF74BFF40B1012804D0A4
:1002D000F61D26F007060836D8E7361DD6E728466D
:1002E000DAE7206ABDE8F0812DE9F04106460024F6
:1002F00010687529314616A510D0AFF3008000288C
:1003000002DA404213A507E031688A0701D512A539
:1003100002E0490704D511A5012401E0AFF30080F4
:1003200000210A2206F1240709E0B0FBF2FCB0FB31
:10033000F2F302FB1C00303078541846491C0028A8
:10034000F3D123462A463046BDE8F04100F0A9B873
:10035000000000002D0000002B0000002000000025
:10036000032A40F2308010F0030C00F0158011F8E1
:10037000013BBCF1020F624498BF11F801CB00F8B9
:10038000013B38BF11F8013BA2F1040298BF00F80D
:1003900001CB38BF00F8013B11F0030300F02580CA
:1003A000083AC0F0088051F8043B083A51F804CBF1
:1003B000A0E80810F5E7121D5CBF51F8043B40F8B7
:1003C000043BAFF30080D20724BF11F8013B11F8C2
:1003D00001CB48BF11F8012B24BF00F8013B00F806
:1003E00001CB48BF00F8012B704710B5203AC0F090
:1003F0000B80B1E81850203AA0E81850B1E8185026
:10040000A0E81850BFF4F5AF5FEA027C24BFB1E862
:100410001850A0E8185044BF18C918C0BDE81040D3
:100420005FEA827C24BF51F8043B40F8043B08BFDC
:100430007047D20728BF31F8023B48BF11F8012BA3
:1004400028BF20F8023B48BF00F8012B70474FF04F
:10045000000200B5134694469646203922BFA0E814
:100460000C50A0E80C50B1F12001BFF4F7AF090720
:1004700028BFA0E80C5048BF0CC05DF804EB890011
:1004800028BF40F8042B08BF704748BF20F8022B54
:1004900011F0804F18BF00F8012B7047704770476C
:1004A00070472DE9F0470D4699469246044600F103
:1004B00024080168880604D5E06921F01001216054
:1004C00000E00120A84201DD471B00E00027A169F0
:1004D0007A1902EB0900081AA0612078C00602D43C
:1004E0002046AFF30080002608E0D4E901211AF885
:1004F00006009047206A401C761C20624E45F4DBC3
:100500002078C0060AD52046AFF3008006E0D4E983
:10051000012130209047206A401C2062381EA7F13C
:100520000107F4DC07E0D4E9012118F80500904741
:10053000206A401C2062281EA5F10105F3DC20463C
:10054000AFF300802078000602D50220BDE8F087D6
:100550000120FBE7074B70B50D467B4400F011F816
:100560000446284600F020F810B14FF0FF3070BD6F
:10057000204670BD7B17000001694A1C02610878A3
:10058000704700B58FB0CDE90131002105910549D3
:100590007944CDE9031011466846FFF771FE0FB0AC
:1005A00000BD0000E5FFFFFF007B00F0800070470A
:1005B000754600F02BF8AE4605006946534620F01C
:1005C0000700854618B020B5FFF73CFEBDE8204087
:1005D0004FF000064FF000074FF000084FF0000BFF
:1005E00021F00701AC46ACE8C009ACE8C009ACE8B2
:1005F000C009ACE8C0098D46704710B50446AFF39A
:1006000000802046BDE81040FFF7BCBD00487047A1
:100610008C10002001491820ABBEFEE72600020026
:100620007047000070B5044600688168C943C90777
:1006300017D1816821F00101816000F089FB054636
:100640000AE000BF00F084FB401B022804D92068A8
:100650008068C043C00706D020688068C043C007D8
:10066000F0D0002070BDA06A40F01000A062E06AE7
:1006700040F00100E062012070BD0000F8B50026E6
:100680000446009600688168C943C9072DD0816877
:1006900041F001018160164816490068B0FBF1F095
:1006A00000E0401E00900028FBD100F051FB054601
:1006B00016E000BF00F04CFB401B022810D9206858
:1006C0008068C043C0070BD0A06A40F01000A06251
:1006D000E06A40F00100E06284F824600120F8BD87
:1006E00020688068C043C007E4D10020F8BD000046
:1006F0001C00002040420F00FEE77047F8B50024C0
:10070000009490F824202546012A12D0012280F876
:1007100024204A681F23072A0DD20668776B521ED1
:1007200002EB820293409F430B6893401F43776321
:1007300019E00220F8BD06680D2A0AD2376BD21FD5
:1007400002EB820293409F430B6893401F43376341
:1007500009E0F76A0D3A02EB820293409F430B686F
:1007600093401F43F7620A68072306680A2A0AD3E0
:10077000F7680A3A02EB420293409F438B6893402A
:100780001F43F76008E0376902EB420293409F4342
:100790008B6893401F4337610A68102A01D0112AE1
:1007A00020D1124B02689A4217D193681B0219D4C8
:1007B000936843F4000393600968102912D10C492F
:1007C0000C4A0968B1FBF2F101EB8101490000E03C
:1007D000491E00910029FBD104E0816A41F020010B
:1007E0008162012480F824502046F8BD0024014095
:1007F0001C00002040420F000068C06C70470000E1
:100800002DE9F0414FF0000704003D467ED0A06A7C
:10081000002628B9E66284F82460204600F07EF8BD
:100820002046FFF7FFFEA16AC90600D420B1A06AE6
:1008300040F01000A06269E0A16A21F4885141F003
:100840000201A1626268E169237B0A4347EA43012E
:100850000A43A1684FF48077B94209D0012907D033
:100860005FF0000194F814C0BCF1010F02D00AE05F
:100870003946F7E7F3B1A36A43F02003A362E36AC2
:1008800043F00103E3622368D3F804C02CF4694CFD
:100890004CEA010CC3F804C021688B68DFF870C013
:1008A00003EA0C0313438B60A168B9420BD0012902
:1008B00009D00CE0DFF85CC0A3690CEB43330B43B9
:1008C00043F40061DFE7218A0D05A5F58015216855
:1008D000CB6A23F470032B43CB62216889680E4BEB
:1008E0001940914208D1E662A16A21F0020141F06B
:1008F0000101A162BDE8F081A06A20F0020040F091
:100900001000A062E06A40F00100E0620120F1E71F
:10091000FDF7E1FF00E0FFFFFE0E1FFF00B585B011
:100920000021009101910291039100680E498842D3
:1009300018D10E48816941F400718161816901F427
:1009400000710491816941F0040181618069694607
:1009500000F004000490012000900320019004485E
:1009600000F006F905B000BD00240140001002406F
:10097000000801402DE9F84300270D460446009782
:1009800000F0E6F9804620688168C90508D5A06AAC
:1009900040F02000A06284F824700120BDE8F883B4
:1009A0004168C90503D4C06A10F4700F2AD0022030
:1009B00000F098FA3B490968B1FBF0F6206803693A
:1009C00039490B424FEA61014FEAA1121FD1C368B6
:1009D0004FEA611C13EA0C0F19D103690B4225D1B0
:1009E000C068104222D1142023E0681C0AD02DB127
:1009F00000F0AEF9A0EB0800A84203D92068006817
:100A0000800725D5206800688007EED52DE00369B2
:100A10000B4202D1C168114206D0026923490A4241
:100A200006D1C068084203D1542002E0292000E02A
:100A3000FC204643009816E0681C11D02DB100F050
:100A400087F9A0EB0800A8420AD90098B04207D263
:100A5000A06A40F00400A06284F8247003209DE79F
:100A60000098401C0090B042E6D321686FF012005D
:100A70000860A06A40F40070A06220688068C0F33B
:100A8000424007280CD1207B50B9A06A20F4807026
:100A9000A062A06AC00403D4A06A40F00100A06272
:100AA00000207BE71C000020244992244992240066
:100AB00070B5044690F8240001280DD0012084F878
:100AC00024002046FFF7DAFD02004FF0000005D0B9
:100AD00084F82400104670BD022070BDA16A40F267
:100AE0000123994341F48071A1621F4D23681F497E
:100AF000AB4218D10E6816F4702F14D0A66A46F4D3
:100B00008016A6620E68760505D5A66A26F40056FC
:100B100046F48056A662A66AF6040AD5E66A26F06E
:100B20000606E66206E0A66A26F48016A6625E68FD
:100B3000E9E7E06284F824006FF0020018602068A2
:100B40008368C3F34243072B05D1A84208D1096843
:100B500011F4702F04D0816841F480118160B9E7ED
:100B6000816841F4A001F9E7002801400424014014
:100B70002DE9F84FDFF8B8910024A9F1040B2346C2
:100B80000F2709F1040AABF1040EC9E00125A540C5
:100B90002A40AA427DD1674ED1F804C0ACEB0608CA
:100BA000B44532D014DCBCF1030F3AD009DCBCF1FF
:100BB000000F2AD0BCF1010F1CD0BCF1020F31D1C3
:100BC0001DE0BCF1110F17D0BCF1120F2AD119E0B2
:100BD000B8F5881F19D006DCB8F5803F15D0B8F5F8
:100BE000801F1FD111E0B8F5001F0ED0B8F5041F0B
:100BF00018D10AE0CB6815E0CB681B1D12E0CB686A
:100C000008330FE0CB680C330CE08B682BB1012B61
:100C10004FF0080303D0456104E0042302E00561BE
:100C200000E00023FF2A01D8064601E000F1040697
:100C30004FEA840501D9A5F12005D6F8008007FA0E
:100C400005FC28EA0C0803FA05F548EA0508C6F889
:100C500000804D68ED0062D5374DAE6946F0010663
:100C6000AE61AD6924F0030605F001050095334D32
:100C700006EB050CDCF80850A607360F07FA06F855
:100C800025EA0805DFF8B880404503D14FF0000899
:100C900017E044E0DFF8AC80404502D14FF0010896
:100CA0000FE0DFF8A480404502D14FF0020808E0D1
:100CB000DFF89880404502D14FF0030801E04FF083
:100CC000040808FA06F848EA0508CCF808804D68D8
:100CD000D9F80060ED024D4601D5164300E0964379
:100CE0002E604D68DAF80060AD02554601D5164316
:100CF00000E096432E604D68DBF80060AD035D4672
:100D000001D5164300E096432E604D68DEF8006082
:100D1000ED03754601D5164300E096432E60641C32
:100D20000D682A46E5407FF431AFBDE8F88F00003A
:100D300008040140000011100010024000000140B2
:100D400000080140000C0140001001400014014067
:100D50000148806870470000100000200248816848
:100D6000027811448160704710000020074810B5D8
:100D7000016841F010010160032000F0A1F80F208C
:100D800000F006F800F04AF8002010BD00200240F4
:100D900030B505461C4887B0816941F40061816126
:100DA000806906A900F40060009001A800F0F8F93D
:100DB00000F026FA1549164AB0FBF1F11548491E14
:100DC0000260416040F2E7320021C0E90321816006
:100DD000816100F0DDFB040012D10E4800F006FC3A
:100DE00004000DD1192000F03DF8102D07D200228B
:100DF0002946192000F044F80748056000E0012466
:100E000007B0204630BD00000010024040420F00F5
:100E1000002C014054030020140000200F4808B5A6
:100E2000816941F001018161816901F00101009155
:100E3000C16941F08051C161C069002200F0805059
:100E400000900F21901E00F01BF80548416821F02A
:100E5000E06141F00071416008BD000000100240F7
:100E600000000140002809DB00F01F020121914031
:100E70004009800000F1E020C0F800117047000038
:100E8000F0B40E4B1B680C46C3F30223C3F10705F5
:100E9000042D00D90425191D072901D2002300E0E3
:100EA000DB1E012606FA05F1491E214099409E40AD
:100EB000761E16403143F0BC00F0FEBE0CED00E0A3
:100EC000064900F0070208684FF6FF03184040EAA1
:100ED0000220034A10430860704700000CED00E058
:100EE0000000FA0510B501460020234C012922D04C
:100EF000022939D010291DD161682268D20119D583
:100F00001E48C1F38342C903805C0AD561681B4A4D
:100F1000C1F34041921E515C194AB2FBF1F14843C2
:100F200001E0184948436168490203D440000321A5
:100F3000B0FBF1F010BD226AC2F30121012903D1F7
:100F4000920701D5C80310BD022905D1626A920734
:100F500002D549F6404010BD0329FCD12168890320
:100F6000F9D54FF2244010BD00F04AF96168C1F391
:100F70008131491C4900DBE70010024010320008B3
:100F800000127A0000093D002DE9F843054600787B
:100F9000354CC00754D0E0690026C00008D4E06991
:100FA00040F08050E061E069012600F08050009040
:100FB0002E480168C90512D40168804641F4807149
:100FC0000160FFF7C5FE074605E000BFFFF7C0FE62
:100FD000C01B642823D8D8F80000C005F6D5206AC5
:100FE00010F4407021D0A98801F4407181421CD0D6
:100FF000206A1F49012220F440700A6000220A6022
:101000002062C00711D0FFF7A3FE074641F28838DF
:1010100008E000BFFFF79CFEC11B414502D9032039
:10102000BDE8F883206A8007F4D5206A696820F457
:101030004070084320621EB1E06920F08050E061FA
:101040002878800705D56068A96820F440400843E7
:1010500060602878C00605D56068E96820F48000E3
:10106000084360600020DBE7001002400070004091
:10107000400442422DE9F0470F46050061D0434E3F
:10108000306800F00700B84209D2306820F007004D
:1010900038433060306800F00700B84251D128680A
:1010A0003B4C810712D5400703D5606840F4E060EF
:1010B00060602878000703D5606840F46050606085
:1010C0006068A96820F0F000084360602878C007D5
:1010D00028D06868012810D02168022810D089071C
:1010E00000292EDA616821F0030101436160FFF7F6
:1010F0002FFE804641F288390DE021688903EFE731
:101100008901EDE7FFF724FEA0EB0801494502D96C
:101110000320BDE8F0876068696800F00C00B0EB60
:10112000810FEFD1306800F00700B8420BD930686A
:1011300020F0070038433060306800F00700B84204
:1011400001D00120E5E72878400705D56068E96807
:1011500020F4E060084360602878000706D56068E6
:10116000296920F4605040EAC100606000F058F83E
:101170006168084AC1F30311515CC8400649086020
:1011800006480068FFF704FE0020C2E70020024086
:1011900000100240203200081C0000201400002033
:1011A0000F2202600C4A536803F003034360536844
:1011B00003F0F0038360536803F4E063C360526894
:1011C0004FF4E06303EAD20202610448006800F0D1
:1011D0000700086070470000001002400020024035
:1011E0000448054900684968044AC1F30221515C7A
:1011F000C84070471C000020001002403032000838
:101200000448054900684968044AC1F3C221515C99
:10121000C84070471C000020001002403032000817
:101220000E4A51680E4801F00C03042B11D0082B14
:101230000FD10C48C1F38343C903C05C0AD5516880
:10124000084AC1F34041921E515C054A5043B0FB2D
:10125000F1F0704704494843704700000010024015
:1012600000127A00FE31000800093D002DE9F84F18
:10127000040070D02078C04DC00749D06868C0F322
:101280008100012807D06868C0F38100022809D1D5
:101290006868C00306D52868800339D560680028CF
:1012A000E7D035E06068B0F5803F0BD010B1B0F505
:1012B000A02F11D0286820F480302860286820F4FE
:1012C000802002E0286840F480302860606890B197
:1012D000FFF73EFD06460AE0286840F480202860BB
:1012E000F0E700BFFFF734FD801B642873D828683F
:1012F0008003F7D50CE0FFF72BFD064605E000BFA5
:10130000FFF726FD801B6428F0D828688003F7D4F7
:1013100020789A4E80074FF001094FF0000839D528
:10132000686810F00C0F07D06868C0F381000228CD
:1013300009D16868C00306D42868800714D52069DD
:10134000012808D110E02069B0B1C6F80090FFF77D
:10135000FFFC074605E00AE1FFF7FAFCC01B022884
:10136000C4D828688007F7D52868616920F0F8009C
:1013700040EAC10028600DE0C6F80080FFF7E8FCF5
:10138000074604E0FFF7E4FCC01B022823D82868C6
:101390008007F7D4207800072CD57948A169D9B106
:1013A000C0F80090FFF7D4FC074604E0FFF7D0FC3C
:1013B000C01B02280FD8686A8007F7D571484FF420
:1013C000FA510068B0FBF1F0009000BF0098411E98
:1013D0000091FAD20EE080E0C0F80080FFF7B8FC80
:1013E000074604E0FFF7B4FCC01B022875D8686A02
:1013F0008007F7D42078400760D5E8690027C0004F
:1014000008D4E86940F08050E861E869012700F0FD
:10141000805000905C480168C90513D40168834678
:1014200041F480710160FFF793FC824606E000BF43
:10143000FFF78EFCA0EB0A0064284ED8DBF8000012
:10144000C005F5D5E06801280AD008B1052813D0F9
:10145000286A20F001002862286A20F0040002E0D7
:10146000286A40F001002862E06841F2883B98B1A8
:10147000FFF76EFC82460BE0286A40F00400286209
:10148000EEE700BFFFF764FCA0EB0A0159455AD80C
:10149000286A8007F6D50CE0FFF75AFC824605E083
:1014A000FFF756FCA0EB0A0159454CD8286A800783
:1014B000F6D41FB1E86920F08050E861E06988B394
:1014C0006968C1F38101022944D00228C6F860800E
:1014D00004D0FFF73DFC044638E034E0FFF738FC69
:1014E000074604E0FFF734FCC01B02282BD828680D
:1014F0008001F7D4206AB0F5803F05D16868A16803
:1015000020F4003008436860D4E9080108436968A2
:1015100021F4741108436860C6F86090FFF718FC66
:10152000044606E025E000BFFFF712FC001B02287E
:1015300009D828688001F7D51BE000BFFFF708FC39
:10154000001B022802D90320BDE8F88F286880011B
:10155000F4D40EE00128F7D06868226A00F48031E4
:10156000914204D1616A00F47010884201D00120D8
:10157000EAE70020E8E700000010024000004242D5
:10158000800442421C0000200070004070477047F9
:1015900010B5040003D094F83D0010B107E001201D
:1015A00010BD002084F83C00204600F01EF8022008
:1015B00084F83D00211D206800F030FA012084F8F5
:1015C000460084F83E0084F83F0084F8400084F828
:1015D000410084F8420084F8430084F8440084F811
:1015E000450084F83D00002010BD704790F83D1084
:1015F000012901D001207047022180F83D100168C7
:10160000CA6842F00102CA6000680B49884208D0EB
:10161000B0F1804F05D00949884202D0084988427C
:1016200004D1816801F00701062903D0016841F067
:101630000101016000207047002C014000040040BF
:101640000008004070472DE9F04104460068C66874
:1016500005694FF00007A90713D5B10711D5F91E89
:10166000016101202077206880698007204602D030
:10167000FFF7E8FF04E000F07EF8204600F07CF879
:101680002777680716D5700714D521686FF0040016
:101690000861022020772068806910F4407F20468E
:1016A00002D0FFF7CFFF04E000F065F8204600F01D
:1016B00063F82777280715D5300713D521686FF011
:1016C00008000861042020772068C0698007204650
:1016D00002D0FFF7B7FF04E000F04DF8204600F01D
:1016E0004BF82777E80616D5F00614D521686FF079
:1016F00010000861082020772068C06910F4407F3E
:10170000204602D0FFF79EFF04E000F034F82046A8
:1017100000F032F82777E80708D0F00706D02168F4
:101720006FF001000861204600F028F8280608D56F
:10173000300606D521686FF0800008612046FFF76B
:1017400025FF680608D5700606D521686FF04000B1
:101750000861204600F01CF8A8060AD5B00608D596
:1017600021686FF0200008612046BDE8F041FFF7D6
:101770000EBFBDE8F0817047704700000068034964
:10178000884201D1FFF7EABA70470000002C0140FF
:10179000704770B5040004D094F84100002510B1E2
:1017A00006E0012070BD84F84050204600F024F887
:1017B000242084F841002068C16821F40051C160F0
:1017C000204600F0E3F92068016921F490410161AD
:1017D0002068416921F02A0141612068C16841F413
:1017E0000051C1606564202084F8410084F8420003
:1017F0006563002070BD000030B585B00024009402
:1018000001940294039400681449884224D1144836
:10181000816941F480418161816901F480410491D1
:10182000816941F00401816180690E4D00F004007E
:1018300004904FF400700090022001900320039068
:1018400069462846FFF794F92815CDE90004694652
:1018500028460294FFF78CF905B030BD00380140EE
:1018600000100240000801402DE9F843044690F8BA
:101870004100984616460D46202802D00220BDE8B9
:10188000F88385B17EB100206064212084F8410096
:10189000FFF75EFAA6848146E684A0682027B0F5AB
:1018A000805F02D003E00120E9E7206910B12E46F5
:1018B00000250EE000260CE08021204600F0C2F951
:1018C000A8B9C6B116F8010B21684860E08C401E2B
:1018D000E084E08C4B464FF00002CDF800800028F9
:1018E000EAD14FF04001204600F0ACF940B184F855
:1018F00041700320C3E735F8020BC0F30800E3E7AB
:1019000084F841700020BAE7FEE700003EB50E48BB
:1019100000240C498460016001250573047505618C
:101920004FF460214460C161FEF76AFF08B172B6EE
:10193000FEE705200094CDE9015069460248FEF714
:10194000DDFE3EBD0024014088000020FEE7FEE7EA
:1019500010B564210348FFF70DF80248FEF74CFF6D
:1019600080B210BD8800002010B5502080F311888F
:10197000BFF34F8FBFF36F8F01F0CEFA18B1044958
:101980004FF080500860002080F3118810BD0000E7
:1019900004ED00E030B593B028216846FEF757FD0E
:1019A00014210AA8FEF753FD002501200F9510957C
:1019B0001195010412958DE8230004904FF4E01076
:1019C000CDE90810022407946846FFF74FFC08B1E0
:1019D00072B6FEE70AA90F2081E831004FF480605B
:1019E000CDE90D0502210AA8FFF744FB08B172B644
:1019F000FEE74FF4004011900F940FA8FFF7C4FAD0
:101A0000002801D072B6FEE713B030BD7047000069
:101A10000148FFF718BE000054030020F0B502682B
:101A2000194B1A4C1A4D4FF08047984205D0B842D6
:101A300003D0A04201D0A84203D122F070064A6828
:101A40003243984205D0B84203D0A04201D0A84208
:101A500003D122F44074CA6822434C6922F0800208
:101A6000224302608A68C2620A688262984201D197
:101A700009690163012141610169C90703D0016955
:101A800021F001010161F0BD002C01400004004083
:101A9000000800400B48FFF70BF84FF0FF360A4DE7
:101AA0004FF4FA77FFF754FF0446014607A0FEF70C
:101AB000DBFB32462146A86800F0E6F9384600F024
:101AC00079F9EFE7880000200000002047696120D5
:101AD0007472692074727579656E3A2025750A00F2
:101AE0000EB50B4C4FF0FF354FF4FA762A46684698
:101AF000A16800F07FF9DDE90001102803D189B267
:101B000004A0FEF7B1FB304600F054F9EEE7000008
:101B10000000002047696120747269206E68616E60
:101B20003A2025750A00000001B50A230122694602
:101B30000148FFF799FE08BDB800002001680C318C
:101B400051E8002F22F4907241E80023002BF5D1D8
:101B50000168143151E8002F22F0010241E800230E
:101B6000002BF5D1016B012909D101680C3151E835
:101B7000002F22F0100241E80023002BF5D1202194
:101B800080F84210002101637047000070B50446E0
:101B900000680169E26821F4405111430161216943
:101BA000A0680843616908432168CA6841F20C6370
:101BB0009A430243CA6020684169A26921F44071D6
:101BC000114341611E492068884202D1FFF718FB8A
:101BD00001E0FFF705FB00EBC00101EB00126068BC
:101BE00064218000B2FBF0F3B3FBF1F36FF0180651
:101BF0007343B2FBF0F5B2FBF0F605EB830532233D
:101C000003EB0515B5FBF1F5B6FBF1F605F0F005B4
:101C100005EB0615B2FBF0F6B2FBF0F0B0FBF1F00D
:101C20006FF01802504306EB800003EB0010B0FB8E
:101C3000F1F0216800F00F002844886070BD0000BA
:101C4000003801402DE9F843984617460D460446F2
:101C5000089E24E0701C22D0FFF77AF8A0EB080061
:101C6000B0421AD8CEB12068C168490717D5802D77
:101C700015D0402D13D00168C94309070FD401685E
:101C80000025406800902046FFF758FF0820606458
:101C900084F840500120BDE8F8830320FBE720686A
:101CA000006835EA000004D00020B842D2D00020FD
:101CB000F1E70120F9E7FEE70907090E002804DB38
:101CC00000F1E02080F80014704700F00F0000F1F0
:101CD000E02080F8141D704710B50446C0B2FFF72D
:101CE00023FF204610BDEFF30580002800D001201F
:101CF0007047000094B0FFF739F8FFF74BFE254816
:101D0000816941F020018161816901F02001129116
:101D1000816941F004018161806900F00400129042
:101D2000FFF7F4FD1D481C490C2201604FF4E1311E
:101D3000416000218160C160C0E904128161C1611C
:101D4000FFF727FD08B172B6FEE7154B0DF1380C11
:101D50000FCB8CE80F0000210EA800F037F8114CD3
:101D60000F491C22A06010316846FEF73EFB00219F
:101D7000684600F0B7F80A4920601C222C3107A8F9
:101D8000FEF733FB002107A800F0ACF8606000F01C
:101D900018F8FEE70010024000380140B8000020AB
:101DA000B43100080000002001460020842900D042
:101DB000C81C704710B500B9012000F06FFC00206E
:101DC00010BD10B500F0B6FC002010BD38B5D0E94C
:101DD000011204683AB1C3682BB10020009020467C
:101DE00000F089FD38BD2046BDE83840002200F0F3
:101DF00061BD00002DE9FF410D004FF00006CDE967
:101E0000016507461ED000240396501C1FD002B166
:101E10001446FFF768FF69464FF01008E8B103AABF
:101E20002846091D00F08AFF012813D00096039868
:101E3000E8B114494FF080500860BFF34F8FBFF3F3
:101E40006F8F14E0802031462A46009011E04FF059
:101E5000FF34DEE7CDF80080E9E722462846091D79
:101E600000F0D0FE012808D054B1402000909DE839
:101E7000070087E80700BDE8FF81CDF80080F6E79E
:101E80000020F3E704ED00E037B5054682B00020FE
:101E90000090140000D10124FFF725FF4FF000034C
:101EA00088B16A4603A9284600F04CFE012811D1EA
:101EB000009890B10A494FF080500860BFF34F8FEF
:101EC000BFF36F8F09E0224603A9284600F08AFD80
:101ED000012802D0FF2005B030BD0020FBE7000044
:101EE00004ED00E07FB50D4604464169B0F90800F5
:101EF00081B1A16971B1FFF757FFD4E905128DE8EF
:101F00000700D4E900102B46226900F0CCFF0390B3
:101F100004B070BDFFF748FF03A9CDE90001208A96
:101F20002B4682B2D4E9001000F090FF012801D0C6
:101F30000020EDE70398EBE72DE9F041184C0F4640
:101F40000546E6682068001D00F0B6FA38B920683A
:101F500090F82C1001208840216981432161681C80
:101F600007D137B12168BDE8F0410E48091D00F0E6
:101F7000E7BA20683544B5424560216805D2A06BB8
:101F8000BDE8F041091D00F0C3BA606B091D00F007
:101F9000BFFAA06A854200D2A562BDE8F0810000C8
:101FA00020000020780400202DE9F041054600F0D3
:101FB000D3FA2E4CA068401CA06020682C4F10B1B2
:101FC000606940B32DE02560A068012829D1002672
:101FD00006EB860007EB800000F08CFA761C072EDB
:101FE000F6D323488C3000F085FA2148A03000F069
:101FF00081FA1F48B43000F07DFA1D48C83000F067
:1020000079FA1B48DC3000F075FA19488C306063AF
:102010001430A06305E02068E96AC06A884200D8ED
:102020002560606A401C6062E96A0120226988407C
:102030001043206101EB810007EB8000291D00F0B7
:102040007FFA00F0A9FA606900280CD02068E96ADC
:10205000C06A884207D207494FF080500860BFF33A
:102060004F8FBFF36F8FBDE8F0810000200000208C
:102070009C03002004ED00E030B4026C0B46002A03
:102080000BD0C1681144C1608468A14201D30168CA
:10209000C16030BC1846FEF763B930BC70472DE90B
:1020A000F041856B174604460026026C82B1C7B129
:1020B000E068FEF755F9E168206C091AE1602268D2
:1020C000914202D2A168081AE060022F16D017E0F0
:1020D0002068A8B9A06800F085FF06460020A0602F
:1020E0000EE06068FEF73CF9216C606808446060AF
:1020F000A168884204D32068606001E005B16D1ECC
:102100006D1CA5633046BDE8F08110B5044690F81B
:10211000510058B101280CD002280FD0502080F374
:102120001188BFF34F8FBFF36F8FFEE7206B00F076
:1021300047FA2046BDE8104000F042BA10BD00004A
:1021400010484FF44061420706D0C01D0D4920F0F1
:102150000700411AC1F540610B4A00230144C2E95E
:1021600000030839183A21F0070111604B600B6039
:102170000B1AC0E9001393604FF0004053605061A8
:10218000704700008C04002074000020144E154C91
:10219000A6F1C8074FF08058DFF84C9012E000BF5E
:1021A00000F0DAF9F068C568281D00F085F9A0682C
:1021B000401EA0606068401E606000F0EDF9284697
:1021C000FFF7A3FF60680028EAD138680128F9D931
:1021D000C9F80080BFF34F8FBFF36F8FF2E70000A5
:1021E000640400202000002004ED00E00346009875
:1021F00029B10260C0E90F31012100F0AFBB0060DE
:10220000F8E72DE9F0479A46DDE9098481466FF049
:102210000303206B03EB82021044089E20F00707A3
:10222000780707D0502080F31188BFF34F8FBFF39A
:102230006F8FFEE7002561B1002023180A5C83F848
:1022400034200A5C12B1401C1028F6D384F84350A5
:1022500001E084F83450072E00D30626E662C4E974
:102260001165201D00F051F904F1180000F04DF93E
:102270002461C6F107006462A061E56484F85050EF
:1022800052464946384600F005F92060B8F1000F83
:1022900001D0C8F80040BDE8F087000030B5114912
:1022A00000E011460A688242FBD34B685C18844206
:1022B00003D1406818444860084643681C1894429B
:1022C00009D1084C183C2468A24209D052681A442B
:1022D00042600A6812680260814200D0086030BD26
:1022E0000460F9E77400002010B5044600F034F9EA
:1022F000A06B28B15FF0000400F04EF9204610BD3D
:102300000124F9E70648416B096829B1416BC968A6
:10231000C9684968816270474FF0FF31FAE70000F1
:102320002000002008484068401C4FF0500080F317
:10233000118804D0BFF34F8FBFF36F8FFEE7BFF359
:102340004F8FBFF36F8FFEE77C0000202DE9F04137
:10235000044600F001F994F9455004F1240609E01F
:10236000606A48B1304600F089FE08B100F0C4F957
:102370006D1E6DB2002DF3DC4FF0FF3684F8456022
:1023800000F00AF900F0E8F894F9445004F110075D
:1023900009E0206948B1384600F070FE08B100F04D
:1023A000ABF96D1E6DB2002DF3DC84F84460BDE81E
:1023B000F04100F0F1B800002DE9F041054600279A
:1023C00000F0EEF9324E306808B9FFF7B9FE7069D7
:1023D00005424ED1C5B3083568070ED005F0070099
:1023E000C0F108000544680707D0502080F3118829
:1023F000BFF34F8FBFF36F8FFEE72DB37068854239
:1024000037D82348183001460C6801E020460C46B6
:102410006168A94202D221680029F7D131688C4253
:1024200027D007682168016060680837411B1029C0
:102430000FD96019420708D0502080F31188BFF3EC
:102440004F8FBFF36F8FFEE713E041606560FFF7CA
:1024500025FF61687068401A7060B268904200D2CF
:10246000B060706901430020C4E90001F068401CBD
:10247000F06000F03DFE780707D0502080F311880F
:10248000BFF34F8FBFF36F8FFEE73846BDE8F08193
:102490005C00002010B5031F4FF080741C601B1FF0
:1024A00021F001011960191F024B0B6014394038EB
:1024B0000A6010BD25230008D0E9013201699A6045
:1024C000D0E901235A604A68824201D182684A6099
:1024D000002202610868401E08600868704700001A
:1024E000034B036003F154000860802010607047C4
:1024F0000001002000F108014FF0FF32C0E9011295
:10250000C1600161002101607047002101617047D5
:1025100030B50B685A1C02D000F1080202E00269D3
:1025200004E02246546825689D42FAD953684B60FE
:1025300099608A60516008610168491C016030BD82
:1025400042684A6093688B60936859609160086143
:102550000168491C01607047502080F31188BFF367
:102560004F8FBFF36F8F0A494868401C48600128AD
:102570000CD10848006810F0FF0F07D0502080F3FE
:102580001188BFF34F8FBFF36F8FFEE770470000D6
:102590007C00002004ED00E00849486828B1401E96
:1025A000486001D180F311887047502080F3118872
:1025B000BFF34F8FBFF36F8FFEE700007C0000205A
:1025C00070B500282AD0164DA0F10804606869692A
:1025D000084207D1502080F31188BFF34F8FBFF31B
:1025E0006F8FFEE722683AB1502080F31188BFF365
:1025F0004F8FBFF36F8FFEE78843606000F0D0F825
:1026000060686968084468602046FFF747FE2869EB
:10261000401C2861BDE8704000F06ABD70BD00003C
:102620005C0000204FF0E02000210161816105493C
:102630004FF47A720968B1FBF2F1491E416107213A
:10264000016170471C00002010B5FDF7E9FD11493C
:1026500010280ED300F1E02090F8F0030A789042A1
:1026600007D2502080F31188BFF34F8FBFF36F8FD5
:10267000FEE709480068896800F4E060884207D9ED
:10268000502080F31188BFF34F8FBFF36F8FFEE7A9
:1026900010BD00007C0000200CED00E010B5020031
:1026A00014D00F48006B38B1502080F31188BFF36D
:1026B0004F8FBFF36F8FFEE700F072F800211046D6
:1026C000FFF73AFC00F014FD002807D105494FF050
:1026D00080500860BFF34F8FBFF36F8F10BD0000B5
:1026E0002000002004ED00E002490A6A0260C96887
:1026F000416070472000002001490120C8617047F7
:102700002000002010B50C4650B109490968183165
:10271000FFF7FEFE2046BDE810400121FFF70CBC8C
:10272000502080F31188BFF34F8FBFF36F8FFEE708
:102730002000002010B586B00024039405AA04A947
:1027400003A80494FFF7CCFEDDE903010094CDE972
:10275000011000230EA11048059A00F0A4FB0F49B8
:102760000028C86211D0502080F31188BFF34F8F2A
:10277000BFF36F8F4FF0FF30886201204861CC605B
:1027800006B0BDE8104000F041B806B010BD000032
:1027900049444C45000000008D2100082000002025
:1027A0000248016B491C01637047000020000020B3
:1027B0001448016B11B10121C16170470021C16151
:1027C0000169B1FA81F1C1F11F0101EB81020E49EA
:1027D00051F822306BB101EB820101F108034A6824
:1027E00052684A609A4201D152684A60D1680160D9
:1027F0007047502080F31188BFF34F8FBFF36F8F66
:10280000FEE70000200000209C0300201CB52649A4
:1028100008780190FF20087008788DF800009DF876
:1028200000009DF8002000F0F000904207D05020FA
:1028300080F31188BFF34F8FBFF36F8FFEE79DF8D2
:1028400000001A4C00F0500020700720A06005E046
:102850009DF8002052008DF80020401E9DF80020B9
:102860001206F5D4A060032807D0502080F3118809
:10287000BFF34F8FBFF36F8FFEE74FF44070A06040
:10288000019808700A48016841F47001016001680C
:1028900041F070410160FFF7C5FE00206060FDF768
:1028A00089FC00201CBD000000E400E07C0000204A
:1028B00020ED00E0F8B517460E46050013D005FBE5
:1028C00006F04830FFF778FD04000AD0002084F8B5
:1028D000460004F148023B46314628460094FFF783
:1028E00085FC2046F8BD502080F31188BFF34F8F40
:1028F000BFF36F8FFEE738B5049D18B153B1CAB16D
:1029000081B120E0502080F31188BFF34F8FBFF3D7
:102910006F8FFEE7502080F31188BFF34F8FBFF316
:102920006F8FFEE7502080F31188BFF34F8FBFF306
:102930006F8FFEE739B1502080F31188BFF34F8FBE
:10294000BFF36F8FFEE748241C46012384F846300E
:102950002B460094FFF74AFC204638BD70B50D4663
:10296000040025D0FFF7F8FDD4E90F20216802FB11
:102970000011A1600021A163216861600A46D4E9C9
:102980000F01401E00FB0121E16021464FF0FF30A6
:1029900001F8440F487004F110008DB1FFF7AAFD53
:1029A00004F12400FFF7A6FDFFF7F6FD012070BD3E
:1029B000502080F31188BFF34F8FBFF36F8FFEE776
:1029C00021690029F0D000F059FB0028ECD004491F
:1029D0004FF080500860BFF34F8FBFF36F8FE3E776
:1029E00004ED00E02DE9FF4782B01D468A464FF016
:1029F0000008040003D0BAF1000F08D011E0502005
:102A000080F31188BFF34F8FBFF36F8FFEE7206C09
:102A100038B1502080F31188BFF34F8FBFF36F8F11
:102A2000FEE7022D0AD1E06B012807D0502080F389
:102A30001188BFF34F8FBFF36F8FFEE700F05EFA90
:102A40003F4F4FF000094FF0805648B9049838B115
:102A5000502080F31188BFF34F8FBFF36F8FFEE7D5
:102A6000FFF77AFDA06BE16B884207D3022D05D0FA
:102A70000498D0B1B8F1000F1AD01EE02A46514692
:102A80002046FFF70CFB616A19B104F1240000F045
:102A9000F5FA20B13E60BFF34F8FBFF36F8FFFF7A2
:102AA0007BFD012006B0BDE8F087FFF775FD22E051
:102AB0006846FFF719FE4FF00108FFF76DFDFFF7BD
:102AC0006FFEFFF749FD94F94400401C01D184F8E2
:102AD000449094F94500401C01D184F84590FFF7DB
:102AE0005BFD04A9684600F077F930B12046FFF796
:102AF0002DFC00F0FDFA0020D4E7FFF72DFDA06BC0
:102B0000E16B884213D1FFF747FD04F110000499EF
:102B1000FFF7F8FD2046FFF719FC00F0E9FA00285E
:102B20009ED13E60BFF34F8FBFF36F8F98E7FFF7E3
:102B300033FD2046FFF70AFC00F0DAFA90E70000C8
:102B400004ED00E02DE9F0471F4690468946040059
:102B500003D0B9F1000F08D011E0502080F31188A4
:102B6000BFF34F8FBFF36F8FFEE7206C38B150205B
:102B700080F31188BFF34F8FBFF36F8FFEE7022FF3
:102B80000AD1E06B012807D0502080F31188BFF3F1
:102B90004F8FBFF36F8FFEE7FFF756FD5020EFF327
:102BA000118680F31188BFF34F8FBFF36F8FA06B37
:102BB000E16B884206D3022F04D0002086F31188EF
:102BC000BDE8F08794F94550A06B3A464946204647
:102BD000FFF765FA681C04D06D1C84F8455001208D
:102BE000ECE7606A0028FAD004F1240000F046FA0D
:102BF0000028F4D0B8F1000FF1D00121C8F800107E
:102C0000EDE700002DE9F747002683B08A4604006F
:102C100003D0BAF1000F08D011E0502080F31188E2
:102C2000BFF34F8FBFF36F8FFEE7206C38B150209A
:102C300080F31188BFF34F8FBFF36F8FFEE700F073
:102C40005DF9DFF8F4804FF000094FF0805748B984
:102C5000059838B1502080F31188BFF34F8FBFF330
:102C60006F8FFEE7FFF778FCA56BC5B15146204694
:102C7000FFF702FA6D1EA563206950B104F1100040
:102C800000F0FCF928B1C8F80070BFF34F8FBFF314
:102C90006F8FFFF781FC012006B0BDE8F087059833
:102CA00008B11EB106E0FFF777FC27E06846FFF7A2
:102CB0001BFD0126FFF770FCFFF772FDFFF74CFCD0
:102CC00094F94400401C01D184F8449094F94500E3
:102CD000401C01D184F84590FFF75EFC05A96846C9
:102CE00000F07AF8002820460AD0FFF72FFB00F00A
:102CF000FFF92046FFF7F8FA0028B3D00020CBE711
:102D0000FFF7F2FA90B104F124000599FFF7FAFCFD
:102D10002046FFF71BFB00F0EBF90028A2D1C8F812
:102D20000070BFF34F8FBFF36F8F9BE72046FFF715
:102D30000DFB00F0DDF995E704ED00E02DE9F0472B
:102D400090468946040003D0B9F1000F08D011E085
:102D5000502080F31188BFF34F8FBFF36F8FFEE7D2
:102D6000206C38B1502080F31188BFF34F8FBFF330
:102D70006F8FFEE7FFF768FC5020EFF3118680F3BA
:102D80001188BFF34F8FBFF36F8FA76BF7B194F923
:102D9000445049462046FFF76FF97F1EA763681C21
:102DA00004D06D1C84F84450012010E020690028F4
:102DB000FAD004F1100000F061F90028F4D0B8F165
:102DC000000FF1D00121C8F80010EDE7002086F3D4
:102DD0001188BDE8F08700002DE9F0410C460500A0
:102DE00011D0C4B1FFF7B8FB174BDA686E682068E2
:102DF000911B471C17D02F681B6A9F4219D096421F
:102E000017D8012410E0502080F31188BFF34F8FB2
:102E1000BFF36F8FFEE7502080F31188BFF34F8F11
:102E2000BFF36F8FFEE70024FFF7B6FB2046BDE837
:102E3000F081884205D9401A20602846FFF754FCEB
:102E4000F1E700202060DCE7200000202DE9FF5F93
:102E50008346DDE90E87994616468A469000FFF7BD
:102E6000ABFA05001CD05420FFF7A6FA040014D0DA
:102E70000020256384F85100CDE90240CDE90087A8
:102E80004B46324651465846FFF7BBF92046FFF7FE
:102E90008BF8012004B0BDE8F09F2846FFF790FBB7
:102EA0004FF0FF30F6E7F0B585B0DDE90B640A9D21
:102EB000A6B1DCB1542700972663022684F851603E
:102EC000002604AFCDE90246CDE90057FFF799F996
:102ED0002046FFF769F8049805B0F0BD502080F354
:102EE0001188BFF34F8FBFF36F8FFEE7502080F341
:102EF0001188BFF34F8FBFF36F8FFEE7054841691D
:102F000019B1006B18B100207047012070470220F2
:102F100070470000200000202DE9F0412F4C0026D2
:102F2000206B28B1A069401CA0613046BDE8F0814B
:102F3000E5686D1CE56013D1606B006838B1502006
:102F400080F31188BFF34F8FBFF36F8FFEE7606B85
:102F5000A16B6163A063206A401C2062FFF7D2F975
:102F6000A06ADFF87C80854209D3606B0068A0B15D
:102F7000606BC068C7687868854211D2A06220681B
:102F8000C06A00EB800158F82100012800D9012611
:102F9000E0690028C9D00126C7E74FF0FF30EDE710
:102FA000381DFFF789FAB86A18B107F11800FFF762
:102FB00083FAF96A0120226988401043206101EBFD
:102FC000810108EB8100391DFFF7BAFAF86A216820
:102FD000C96A8842C9D30126C7E700002000002043
:102FE0009C03002070B504004FF0000140D0214D3B
:102FF0002868844207D0502080F31188BFF34F8F98
:10300000BFF36F8FFEE7A06C38B1401EA064636C05
:10301000E26A9A422CD040B12AE0502080F3118815
:10302000BFF34F8FBFF36F8FFEE7201DFFF744FA0A
:10303000114A012150B9E06A00EB800352F82330B5
:1030400023B92B6901FA00F083432B61606CE062C5
:10305000C0F10700A061E06A2B6981401943296132
:1030600000EB800002EB8000211DFFF769FA0121CF
:10307000084670BD200000209C0300202DE9F0418F
:10308000C068C468ACB104F118000746FFF714FA31
:10309000154D286B0126A0B139461448FFF750FAA8
:1030A000E06A2968C96A88421CD90120EE61BDE83E
:1030B000F081502080F31188BFF34F8FBFF36F8FE3
:1030C000FEE7201DFFF7F8F9E16A2A6906FA01F028
:1030D0001043286101EB81000449B43901EB800001
:1030E000211DDBE70020E2E7200000205004002043
:1030F0002DE9F0472C4D00242746286B38B1FFF707
:103100002BFA286B401E2863286B40B146E0502004
:1031100080F31188BFF34F8FBFF36F8FFEE7A9686D
:10312000224E0120D1B3A6F1B40980463068E8B13F
:10313000F068C46804F11800FFF7BEF9201DFFF71E
:10314000BBF9E06A2A6908FA00F11143296100EB32
:10315000800109EB8100211DFFF7F2F9E06A29687F
:10316000C96A8842E2D3C5F81C80DFE70CB1FFF7DB
:10317000C9F8AC6944B14646FFF7CEFE00B1EE6136
:10318000641EF9D10020A861E86938B10849012717
:1031900038070860BFF34F8FBFF36F8FFFF7FCF95D
:1031A0003846BDE8F08700002000002050040020D1
:1031B00004ED00E01000000002000000000000002C
:1031C0000000000038320008951A000800000000D6
:1031D000000000008000000000000000000000006F
:1031E00040320008E11A0008000000000000000062
:1031F0008000000000000000000000000102020347
:103200000405060708090A0B0C0D0E0F1010010229
:1032100002030405060708090A0B0C0D0E0F101017
:103220000000000000000000010203040607080976
:1032300000000000010203045461736B3031000090
:103240005461736B303200006832000800000020C7
:103250008800000028010008F032000888000020E3
:103260006816000044010008000000000000000093
:10327000000000000000000001000000100000003D
:103280000000000000127A000000000000000000B2
:10329000000000000000000000000000000000002E
:1032A000000000000000000000000000000000001E
:1032B000000000000000000000000000000000000E
:1032C00000000000000000000000000000000000FE
:1032D00000000000000000000000000000000000EE
:1032E0000000000000000000AAAAAAAA0000000036
:04000005080000ED02
:00000001FF
